:020000040800F2
:10000000C8060020D9000008AD200008251E000801
:1000100000000000000000000000000000000000E0
:100020000000000000000000000000006122000845
:100030000000000000000000AF200008DD220008E2
:10004000EB000008EB000008EB000008EB000008E4
:10005000EB000008EB000008EB000008EB000008D4
:1000600000000000EB000008EB000008EB000008B7
:10007000EB000008EB000008EB000008EB000008B4
:10008000EB000008EB000008EB0000085D2300080F
:10009000000000006D230008EB000008EB000008E2
:1000A000EB000008EB000008EB00000871320008CC
:1000B000EB000008EB00000800000000000000005A
:1000C0000448854600F090F800480047BD35000818
:1000D000C046C046C8060020044880470448004780
:1000E000FEE7FEE7FEE7FEE7FEE7FEE75B2300082C
:1000F000C100000830B50B46014600202022012433
:1001000009E00D46D5409D4205D31D469540491B4B
:100110002546954040191546521E002DF1DC30BD94
:10012000F0B51FB40646002082B005464024019178
:1001300000901BE0019922460F46304600F042F83D
:10014000049A059B801A994110D3104619462246FD
:1001500000F028F8361A8F4101972246012000212D
:10016000009F00F01FF838184D4100902046641E93
:100170000028DFDC019B00982946324607B0F0BD1D
:10018000D2B201E00270401C491EFBD2704700222F
:10019000F6E710B513460A4604461946FFF7F0FF86
:1001A000204610BD10B5202A04DB0146203A9140BC
:1001B000002010BD914020239C1A0346E3401943C0
:1001C000904010BD10B5202A04DB0846203AD040EC
:1001D000002110BD0B46D340D0402024A21A9140EC
:1001E0000843194610BD0000064C0125064E05E0E7
:1001F000E36807CC2B430C3C98471034B442F7D348
:10020000FFF762FF343700085437000872B6FEE784
:1002100003494A6901231B04184302434A6170479A
:1002200000200240044A5069044BC90018400143B1
:1002300003480143516170470020024007E0FFFF7F
:100240000200010030B505494C6901252C434C6181
:100250000260BFF36F8F436030BD0000002002409A
:1002600030B50B4C002362690125AD042A4362615D
:10027000EFF3108272B620C95B1C20C0DBB2402BAA
:10028000F9D32069C003FCD482F3108830BD00008C
:1002900000200240F8B5044600F03AFA012706466D
:1002A0003F04124D06E0601C04D000F031FA801BC0
:1002B000A04213D228693842F5D128690C49084078
:1002C0000C4929610CD00C4948600120F8BD601C24
:1002D00006D000F01DFA801BA04201D30320F8BD18
:1002E00028694003F3D40020F8BD0000002002403C
:1002F000FAC30000FBC30000A802002010B50446AA
:1003000086B00020049000F035F9022000901F20F4
:10031000C0062018C00A02900120039004A9684674
:1003200000F0A0F8002800D0FEE700F0DFF806B0EB
:1003300010BD70B516461C46054600F01BF9324646
:1003400023462946012000F0E5F800F0CFF870BD03
:10035000F0B5002808D0014620314A79022A05D09C
:100360000422C263002008710120F0BD02681368F6
:100370000E24A3431360426C1468FF2301339C4393
:100380001460026814686408640014600C4A5568BC
:10039000066C1C24264001242746B7403D43556087
:1003A000826CC56C5560026D002A05D015689D43AE
:1003B0001560826D406D42604C7100200871F0BD87
:1003C00000000240F8B5002402462032517902298B
:1003D00003D00421C16301242DE001680B680E25C0
:1003E000AB430B6001680B685B085B000B60416C02
:1003F0000B68FF250135AB430B6010494D68066C57
:100400001C231E4001231F46B7403D434D60816CB5
:10041000C56C4D60016D002906D00E681D02AE430B
:100420000E60416D856D4D60537100211171816BBE
:10043000002900D088472046F8BD00000000024097
:1004400070B5044600F064F90546601C02D004480B
:100450000078241800F05CF9401BA042FAD370BD6C
:1004600038000020F8B51F4E044630780F460128AA
:100470000AD001203070002070607D20C000FFF79E
:1004800009FF002802D029E00220F8BD04216160A4
:100490002268042A03D0491F3960A56814E0084681
:1004A000FFF7B6FE7D20C000FFF7F4FE16E02946F8
:1004B0006068FFF7B7FE7D20C000FFF7EBFE002865
:1004C00001D03D6005E06D1CE268A1688918A94271
:1004D000EDD805494A6902239A434A6100213170E7
:1004E000F8BD0000A80200200020024010B57D20C9
:1004F0000124C000FFF7CEFE054841698204114384
:1005000041614069002800DA0024204610BD000047
:1005100000200240F0B51FB4144C06462078154662
:1005200001280AD00120207000277D20C0006760CC
:10053000FFF7B0FE002803D010E0022005B0F0BDA8
:10054000012E0DD029460198FFF78AFE7D20C000BC
:10055000FFF7A0FE06494A69B2434A612770EDE7FA
:100560002A46039B0198FFF76DFEEFE7A8020020E3
:1005700000200240064900204A69002A07DA054A9D
:100580008A60054A8A604969002900DA01207047BB
:100590000020024023016745AB89EFCDF0B5002371
:1005A00003249AE02A4601259D402A407ED00E79F8
:1005B000B607B60F012E01D0022E16D18668274647
:1005C000B4465E00B646B7406646BE43B446CF6802
:1005D0007646B7406646374387604668AE430D7936
:1005E000ED06ED0F9D40354345600D79ED43AD07B8
:1005F00008D0C5685F002646BE40B5438E68BE4041
:100600002E43C6600D79AD07AD0F022D0ED1DD086A
:10061000AD002D18AC462D6A5E07F60E0F27B740C9
:10062000BD430F69B7402F4365462F6205685F00E1
:100630002646BE40B5430E79B607B60FBE402E43E0
:1006400006604D68AD03AD0F46D09E08264DB6003E
:100650007519AC462D6E9E07F60E0F27B740BD43A9
:1006600005273F07B84201D100270FE01F4FB842CE
:1006700001D101270AE01E4FB84201D1022705E04F
:100680001C4FB84201D1032700E00527B7402F4394
:10069000154D664637662D684E689543F60200D5BF
:1006A0001543114F3D607D68954300E014E04E68AE
:1006B000B60200D515437D600B4D80356E684F68DE
:1006C0009643BF0300D516436E602E684F6896436D
:1006D000FF0300D516432E605B1C0A681546DA40FE
:1006E00000D05FE7F0BD0000001802400004005099
:1006F00000080050000C00500069084000D00120A4
:100700007047002A01D08161704781627047000004
:1007100001488068704700003800002070B5040070
:100720000FD021681548086021681548086003CC7F
:1007300041602068083C21688860FFF7E9FF0546B2
:100740000CE0012070BDFFF7E3FF401B312805D905
:100750002068C068400701D0032070BD2068C068D1
:100760004007F0D120680269E1688A4201D0016146
:1007700001E004490160002070BD0000CCCC000005
:1007800055550000AAAA0000006802490160002037
:1007900070470000AAAA0000024881680278891800
:1007A000816070473800002010B5084800240168B7
:1007B000821511430160032000F00AF8002801D0DF
:1007C000012401E000F028F8204610BD002002407E
:1007D00070B50F4E002431780546002915D07D20D4
:1007E000C000FFF787FC01460A480068FFF782FC5B
:1007F00000F030FC002808D1042D06D20022294642
:10080000401E00F02BF8756000E00124204670BD0A
:10081000380000204400002008B509480168012282
:100820001143016000681040009005484038C26BD9
:1008300001040A43C263C06B0840009008BD000079
:1008400040100240002805DBC106C90E0120884087
:10085000014908607047000000E100E010B502F0B7
:100860002DFD10BD10B50F4C21680322520291439B
:1008700001432160C11FFF39FA390ED10A48062110
:10088000006848430949FFF735FC401C02E0002896
:1008900005D0401E61694905F9D4002010BD032030
:1008A00010BD0000007000404400002040420F00D6
:1008B000F8B5044600680026664D800358D56548A3
:1008C00000274038C06BC00009D462484038C26B72
:1008D00001040A43C263C06B0840012700905E48D0
:1008E0000168821511430160FFF712FF009005E0D7
:1008F000FFF70EFF0099401A022825D856480068D5
:10090000C005F5D5E8690321090208400FD0616AE6
:1009100081420CD0E86903210902EA698843012178
:1009200009040A43EA61EA698A43EA61E861C007A7
:100930000FD0FFF7EDFE009008E0FFF7E9FE009909
:10094000411A4648814201D9032609E0E869800737
:10095000F3D5E869032109028843616A0843E86125
:10096000002F05D03B484038C26B01048A43C26364
:100970002078C00705D06869616880088000084356
:1009800068612078C00606D568690321890288431A
:10099000A168084368612088800506D5686903213D
:1009A000890488436169084368612088400506D549
:1009B0006869032109058843A169084368612078B3
:1009C000800606D56869032109038843E168084366
:1009D00068612088400411D56869E1698000800859
:1009E000084368610121E0698907884206D11948F6
:1009F0004038C168012212041143C160206880029E
:100A000010D5686901218905226A8843104368610D
:100A1000206A884206D10F484038C1680122120678
:100A20001143C1602088000512D56869032189033C
:100A3000884321690843686101212069890388424C
:100A400006D104484038C168012212041143C16034
:100A50003046F8BD4010024000700040881300008E
:100A6000F8B50F46060043D04D4D28684007400FAB
:100A7000B84213D22868C008C00038432860FFF786
:100A800047FE044605E0FFF743FE011B454881424F
:100A900061D828684007400FB842F4D13068424C12
:100AA00081070DD5400704D5A06807210903084335
:100AB000A060A0680F2109028843B1680843A060C4
:100AC0003078C00732D0706801280AD002280BD0D5
:100AD00000280FD03449403103280ED0C969890756
:100AE00004E02168890301E021688901002906DB0F
:100AF0000120F8BD21684905F8E7096AEFE7A16818
:100B0000C908C9000143A160FFF702FE009006E09A
:100B1000FFF7FEFD0099411A224881421BD8A068C8
:100B2000382108407168C9008842F1D1286840071F
:100B3000400FB84217D91A480168C908C90039439B
:100B40000160FFF7E5FD054607E0FFF7E1FD411B0A
:100B50001448814201D90320F8BD114800684007BC
:100B6000400FB842F1D13078400706D5A068072180
:100B700009038843F1680843A06000F031F8A168D8
:100B80003C2289091140094A515CC906C90EC84076
:100B90000749086007480068FFF71AFEF8BD000023
:100BA000002002408813000000100240D4360008E4
:100BB000440000203C00002006480749006889687E
:100BC000064A4904490F8900515CC906C90EC8404C
:100BD0007047000044000020001002401437000855
:100BE00010B5204CA068204A8006400F16D0A0689F
:100BF0008006410F501001290FD0A1688906490FC6
:100C0000022912D0A0688006400F042823D0A068D3
:100C10008006400F032821D0002010BD206801214C
:100C20008004400F8140104612E0E1688B07E168C4
:100C30009B0F4906490F491C032B00D01046FFF7B4
:100C400059FAE1684904490E4843E168490F491CD3
:100C5000FFF750FA10BD0120C00310BD7D20000237
:100C600010BD0000001002400024F400F8B504009C
:100C70007ED020783827C007ED4D002846D0A868E0
:100C8000E96838408907890F102802D008280BD05E
:100C900001E0032908D001206268000482420AD1E1
:100CA00029680143296015E0286880032ED5606813
:100CB0000028DDD02AE0052301211B0489049A4283
:100CC0002A6802D10A432A60EAE782432A60286838
:100CD00088432860606800280CD0FFF719FD06469D
:100CE00004E0FFF715FD801B642873D82868800393
:100CF000F7D50BE0FFF70CFD064604E0FFF708FD13
:100D0000801B6428F1D828688003F7D420788007F6
:100D100069D5A868E96838408A070721920FC90297
:100D2000102802D0002813D001E0022A10D0E06879
:100D3000002846D02868884321690843286028682D
:100D4000FF21013108432860FFF7E2FC06462CE052
:100D50002A68520502D5E268002A89D06A687F2392
:100D60001B029A4363691B021A436A60002800E071
:100D70008DE00ED1286888432169084328602868DF
:100D800001218004400F8140AA48FFF7B3F9AA4926
:100D90000860AA480068FFF71BFD002877D122E011
:100DA000FFF7B6FC801B02289FD828684005F7D5BE
:100DB00068687F2109028843616909020843686005
:100DC00011E02968FF20013081432960FFF7A0FC72
:100DD000064605E098E0FFF79BFC801B022884D8BC
:100DE00028684005F7D42078954E00072ED5A868CE
:100DF0008006400F03280AD0A0690028306A16D068
:100E0000012108433062FFF783FC07460BE0306A9C
:100E100080071BD5A06900289FD017E0FFF778FC5A
:100E2000C01B022870D8306A8007F7D50EE0400852
:100E300040003062FFF76CFC074604E0FFF768FCF7
:100E4000C01B022860D8306A8007F7D4207840079A
:100E50006CD5A86800278006400F042818D0E86BDE
:100E6000C00008D4E96B012000070143E963E96B86
:100E700001400127009173480168C90519D4016830
:100E8000821511430160FFF743FC00900DE083E001
:100E9000F06980074AD5A06800287DD046E0FFF7BA
:100EA00037FC0099401A02282ED866480068C00511
:100EB000F5D5A168012910D004200529F16911D0C8
:100EC00049084900F161F1698143F161A068002896
:100ED00016D0FFF71DFC00900EE0F06901210843D9
:100EE000F061F3E70143F161F7E7FFF711FC0099C7
:100EF000411A5548814267D8F0698007F5D50EE060
:100F0000FFF706FC009007E05EE0FFF701FC0099A8
:100F1000411A4D48814257D8F0698007F5D4002F17
:100F200004D0E86B012109078843E863E0690028E1
:100F30007BD0A9688906490F02294FD001263606C1
:100F40000228286805D0B0432860FFF7E1FB04467B
:100F50003CE0B0432860FFF7DBFB074604E0FFF707
:100F6000D7FBC01B02282FD828688001F7D4616AFC
:100F7000206AA26A0843E16A120211430843216B06
:100F80000843616B0843E968304A11400843E86050
:100F900028683043286000E045E0E868012109073F
:100FA0000843E860FFF7B4FB044604E0FFF7B0FB3A
:100FB000001B022808D828688001F7D535E0FFF724
:100FC000A7FB001B022801D90320F8BD2868800177
:100FD000F5D4E8681E490840E86026E00128F4D00E
:100FE000E868226A8107890F91421CD17021626AE8
:100FF0000140914217D17F21A26A090201401202E9
:10100000914210D11F214904E26A014091420AD164
:1010100007214906226B0140914204D1400F616BC8
:101020004007884201D00120F8BD0020F8BD000033
:10103000001002400024F400440000203C00002086
:101040004010024000700040881300008C80C111E5
:10105000FCFFFEEE094910B5401E884201D901206F
:1010600010BD074C60610321081F02F027F9002022
:10107000A06107202061002010BD0000FFFFFF00DD
:1010800000E000E07047704770470000F0B503468D
:1010900020331A7F012A28D001221A7702225A7798
:1010A00004686268A568124FBC4205D116460F223B
:1010B000120596434A6832437026B2430E681643BF
:1010C00066600068B84206D001229207904202D0C2
:1010D000084A904204D1802289689543294381605F
:1010E0000120587700201877F0BD0220F0BD0000E5
:1010F000002C01400004004070B5040005D02546D6
:101100002035687F002802D006E0012070BD002055
:101110002877204600F016F802206877211D206805
:1011200001F02CF9012240342272AA77EA7722706A
:101130006270A270E27022716271A271E2716A77CC
:10114000002070BD08B5016801208007814208D1E8
:101150001748C16B01221143C163C06B104000905E
:1011600008BD1348134A403091420DD10268C9139B
:101170000A430260006800220840009011461320D4
:10118000FFF76CFB132010E00B4A9142E8D1026894
:10119000012149040A4302600068002208400090CF
:1011A00011461520FFF75AFB1520FFF74BFB08BD32
:1011B0000010024000200040004401400146203160
:1011C0004A7F012A01D00120704702224A77016834
:1011D000CB6801221343CB6000680B49884205D0DD
:1011E0009107884202D00949884207D18168084B9B
:1011F0001940062905D0DB1F994202D0016811432E
:101200000160002070470000002C014000040040F5
:1012100007000100F8B5054604462035287F002662
:10122000012817D001272F7702206877226890685D
:101230002F4B1840FF231B029843906008685028EA
:1012400038D00EDC20284FD006DC00284CD01028E7
:101250001ED149E00220F8BD302845D0402817D1E2
:101260003AE060282ED0702818D001221203801A8C
:101270000FD090420CD1CB684A688968206801F091
:10128000D4F820688168012292031143816000E054
:1012900001266F77002028773046F8BDCB684A6872
:1012A0008968206801F0C1F82168886877221043B6
:1012B0008860EEE7CA684968206801F019FA502191
:1012C000206806E0CA684968206801F022FA6021B7
:1012D000206801F0B5F8DCE7CA684968206801F0C9
:1012E00007FA40212068F4E7226801461046F0E73B
:1012F00088FFCEFF70470000F8B504460068C66856
:1013000005690027A907002913DAB10711D5F91ECD
:10131000016101202077206880698007204602D083
:10132000FFF7E8FF04E000F0AFF8204600F068F9AE
:101330002777680716D5700714D504202168C043A5
:10134000086102202077206880698005800F204690
:1013500002D0FFF7CFFF04E000F096F8204600F03F
:101360004FF92777280715D5300713D508202168AE
:10137000C0430861042020772068C06980072046A8
:1013800002D0FFF7B7FF04E000F07EF8204600F03F
:1013900037F92777E80616D5F00614D5102021680E
:1013A000C0430861082020772068C0698005800F4D
:1013B000204602D0FFF79EFF04E000F065F82046CB
:1013C00000F01EF92777E80708D0F00706D00120C3
:1013D0002168C0430861204600F078F9280601D44E
:1013E000A80407D5300605D52168134808612046B2
:1013F000FFF749FEE80507D5300605D521680F48F7
:1014000008612046FFF73EFE680608D5700606D53F
:1014100040202168C0430861204600F06FF9A8060B
:1014200008D5B00606D520202168C04308612046B3
:10143000FFF72AFEF8BD00007FDFFFFFFFFEFFFF82
:1014400010B586B0044614216846FEF7A0FE0121BF
:1014500020688907884213D10A48416B0122114351
:101460004163406B022100911040059000200290E2
:10147000039001910491052069460007FFF78EF85B
:1014800006B010BD001002407047F8B504460020B9
:10149000264620360090307F0D4601280CD00120D2
:1014A000082730770C2A48D008DC002A10D0042AFC
:1014B0001ED0082A06D130E00220F8BD102A52D0F2
:1014C000142A60D001200090002030770098F8BDE9
:1014D000206800F0BFFF206881693943816120687E
:1014E0008169042291438161206881692A6911E040
:1014F000206800F0EDFF206881690122D2021143CB
:1015000081612068816952109143816120688169FD
:101510002A69120211438161D6E7206801F016F8AA
:101520002068C1693943C1612068C16904229143BF
:10153000C1612068C1692A6912E0206801F044F89D
:101540002068C1690122D2021143C1612068C269C9
:10155000012189028A43C2612068C1692A69120295
:101560001143C161B0E7206801F062F82068416D65
:10157000394341652068426D04218A4342652068F1
:10158000416D2A6912E0206801F080F82068416D01
:101590000122D202114341652068426D0121890276
:1015A0008A4342652068416D2A69120211434165F0
:1015B0008AE770B5040005D025462035687F0028ED
:1015C00002D006E0012070BD00202877204600F000
:1015D00016F802206877211D206800F0CFFE012256
:1015E00040342272AA77EA7722706270A270E270A9
:1015F00022716271A271E2716A77002070BD70473A
:101600007047000010B504460223203000290ED098
:10161000042911D020464030082912D00C2915D0B9
:10162000102918D0C278012A1AD0012010BD827F5B
:10163000012AFAD1837714E0C27F012AF5D1C3775A
:101640000FE00278012AF0D103700AE04278012A03
:10165000EBD1437005E08278012AE6D1837000E087
:10166000C3700122206800F0D3FE1349206888422D
:1016700005D0124A904202D0114A904204D1426CE5
:101680000123DB031A43426420680122884205D00B
:101690009107884202D00B49884207D181680A4BE2
:1016A0001940062905D0DB1F994202D00168114379
:1016B0000160002010BD0000002C014000440140EA
:1016C00000480140000400400700010010B5084C2C
:1016D000084AE178491CC9B2E1700068904206D11D
:1016E000012904D90448FFF74FF80020E07010BD2D
:1016F0002C000020002000408C000020704710B516
:10170000014680310A79012A15D001220A7124226A
:101710008A60026813681468640864001460012217
:1017200052079343002242660068036020208860CD
:101730000A71104610BD022010BD7047704770B589
:10174000044605468034207901281AD001202071F2
:101750002420A060286806680268520852000260CF
:101760002868826807235B069A430A4382602846FA
:1017700000F0E2FF286806602020A06000202071B1
:1017800070BD022070BD70B50446054680342079D6
:10179000012819D0012020712420A0602868066843
:1017A000026852085200026028688268D200D2089B
:1017B0000A438260284600F0BFFF286806602020A8
:1017C000A0600020207170BD022070BD704770477E
:1017D00070470000F8B503680446D96918689A682C
:1017E000B44D0E462E4025468035002E75D0B24EA3
:1017F000B24F1640074037436ED0CF0706D0C7051B
:1018000004D501271F622B693B432B618B0708D549
:10181000D30706D0276802233B622B6904273B438A
:101820002B614B0708D5D30706D0276804233B62FA
:101830002B6902273B432B610B0709D5202303406B
:10184000334305D02668082333622E691E432E6178
:101850000B0509D5430107D501232668DB02336256
:101860002B69202633432B612B69002B42D089063C
:101870000AD520210840C9050A40104304D0616FF1
:10188000002901D0204688472869216889684906CF
:1018900002D42821084232D0204601F03BF82168CA
:1018A0008868400627D5EFF31080012282F3108864
:1018B0008B68402293438B6080F31088286800284F
:1018C00019D07F4981632868FEF77CFD002811D07C
:1018D0002868816B0DE000E017E08E0615D5012722
:1018E00020263F07064017403E430ED0616FB5E00B
:1018F00020468847F8BD2046FFF76AFFF8BD20461E
:10190000FFF766FF00202861F8BDE66E012E7DD14D
:10191000CE067BD5C60679D510221A622368986850
:10192000264640064036002849DA2968086840689B
:101930000004000CE8D0B78B8742E5D9F083086833
:101940000068800634D4EFF31080012181F3108801
:1019500019681701B943196080F31088EFF31080FC
:10196000012181F3108821688B685B085B008B6024
:1019700080F31088EFF31080012181F31088216833
:101980008B684027BB438B6080F310882020E86081
:101990000020E066EFF31080012181F310882168B8
:1019A0000B6893430B6080F310882868FEF7D0FC27
:1019B00002202067B08BF18B401A81B235E0B08BEA
:1019C000F18B401A81B2F08B00289DD000299BD06A
:1019D000EFF31080012686F310881E68FF27213759
:1019E000BE431E6080F31088EFF31080012383F361
:1019F000108823689E68304FFF433E409E6080F30E
:101A000010882020E8600020E06600E011E06067B8
:101A1000EFF31080012383F3108823681D6895433A
:101A20001D6080F31088022020672046FFF785FEA6
:101A3000F8BDCE0208D5560206D501200005186271
:101A40002046FFF7C4FEF8BD0E060BD50127802601
:101A5000FF0506403A40164304D0A16F002900D08C
:101A600046E7F8BD4A0614D5420612D52046EFF3E4
:101A70001081012282F310881A684024A2431A6060
:101A800081F310882021A9600021816700F08BF983
:101A9000F8BD0A0205D5420003D52046FFF796FEA1
:101AA000F8BDC901FCD50028FADA2046FFF746FE4A
:101AB000F8BD00000F080000010000102001000424
:101AC0000129000870B5040005D025468035A868B6
:101AD000002802D006E0012070BD002028712046B9
:101AE00000F026F82420A860206801684908490011
:101AF0000160A06A002802D0204600F03FFE204688
:101B000001F0D2F90128E7D0206841680922D20209
:101B100091434160206881682A2291438160206856
:101B20000168012211430160204600F08DFE70BD66
:101B300070B590B0044614216846FEF728FB2821B2
:101B400005A8FEF724FB294A21680120284C02261B
:101B5000002591422CD10590069505A8FEF7A8FE18
:101B6000002801D0FEF752FB2148403002680121D5
:101B700089030A430260006808400F90606B30439D
:101B80006063606B029530400F90C0200090039519
:101B90006946019604951748FEF700FD002211469C
:101BA0001B20FEF75BFE1B20FEF74CFE10B070BD45
:101BB000114A9142FAD1E26B012149040A43E263DE
:101BC000E26B0A400F92616B01436163616B0490A9
:101BD000C907C90F0F910C210091052002950196AC
:101BE000039569460007FEF7D9FCDFE7003801409E
:101BF00000100240000400500044004070B58C23E7
:101C00001B58202B01D0022070BD00290BD0002AC8
:101C100009D0012483682403A34206D10369002B61
:101C200003D1CB0701D0012070BD0023C3660B4B4D
:101C300004689C420ED063681B020BD5EFF310833F
:101C4000012585F3108825680126B60635432560F1
:101C500083F3108801F02EFA70BD00000080004070
:101C600070B50068194988422FD11948002245787B
:101C70000146012409782B0001F012FB0504080E2F
:101C8000191E2200FF291BD1447019E0FE2917D12B
:101C900002214170827013E00D4B82789B1D995494
:101CA000521CD1B2817005290AD3032102E0FE291A
:101CB00006D10421417003E0FF2900D184804270E5
:101CC000012203490348FFF799FF70BD0038014026
:101CD0002C00002080010020FFB506460446803617
:101CE000B06883B00D46202802D0022007B0F0BDB6
:101CF000002D0CD00598002809D00120A168000310
:101D0000814206D12069002803D1E80701D00120D3
:101D1000ECE7002030612120B060FEF7F9FC019073
:101D2000274640370598B8820598F8820120A168B7
:101D30000003814202D12069002802D002950025CB
:101D400015E00020029012E000228021204601F0E0
:101D500047FA002818D10298002819D02168007885
:101D600088620298401C0290F88A401EF882F88A25
:101D7000019B002806980090E6D1002240212046D1
:101D800001F02EFA00280AD02020B0600320ADE731
:101D900028882168C005C00D8862AD1CE4E72020BA
:101DA000B0600020A2E77047F8B51D4D079F099E5F
:101DB000069C00282AD1002928D0002A26D0002BF2
:101DC00024D00A20FEF73CFB6078FF2801D2401C9B
:101DD0006070C0B2042818D92078002814D10120DE
:101DE00020707878A870A12806D0B12806D0C12824
:101DF00006D0D12808D105E0042004E0052002E047
:101E0000062000E007202870A670F8BD0020607052
:101E100021780029F9D02070A07008202870F8BD22
:101E200000000020FEE70000F0B587B014216846EE
:101E3000FEF7ADF91F48426B04210A434263426B2F
:101E40000A400592416B012529434163416B2940BA
:101E50000591426B02210A434263406B164E0840D3
:101E60000590002220213046FEF74BFC0024052778
:101E70003F0701946946384600950294FEF78EFBB1
:101E8000FF20F1306A4631C269463846FEF786FBCC
:101E900018206A4631C269463046FEF77FFB202093
:101EA000009002946946019503943046FEF776FB54
:101EB00007B0F0BD001002400004005010B50A4801
:101EC0000849016003214160FF21E131C160FF2128
:101ED000F5318160FEF722FC002801D0FEF796F96B
:101EE00010BD0000003000408C00002010B50A48F2
:101EF000084901600949416000218160084A016187
:101F0000C2608161FFF7F8F8002801D0FEF77EF982
:101F100010BD000000200040E80000207F0C000001
:101F2000E703000010B50B48094901600A49416008
:101F300000218160094A0161C260416180218161A3
:101F4000FFF7DAF8002801D0FEF760F910BD0000B5
:101F500000440140340100207F020000E70300003C
:101F600010B58EB000240794089409940A940B9439
:101F70000C941C2168460D94FEF709F901212048B4
:101F8000890701603F21846041601E490461C1608E
:101F900080218161FFF7B0F8002801D0FEF736F903
:101FA00001200003079007A91548FFF733F900281F
:101FB00001D0FEF72BF91248FFF7FBFA002801D0F9
:101FC000FEF724F90B940BA90D480D94FFF75EF86A
:101FD000002801D0FEF71AF96020009001940294C5
:101FE0000422694604940648FFF74FFA002801D0FE
:101FF000FEF70CF90248FFF723FA0EB010BD0000FF
:102000009C0000207B06000010B5184816490160AE
:10201000E1214902416000218160C160016181616B
:10202000C16101620C22416242618162FFF74AFD97
:10203000002801D0FEF7EAF800210C48FFF7A3FBC7
:10204000002801D0FEF7E2F800210848FFF777FBEF
:10205000002801D0FEF7DAF80448FFF750FB00280B
:1020600001D0FEF7D3F810BD0038014080010020F8
:1020700010B50D480B490160E12149024160002182
:102080008160C16001618161C16101620C224162B4
:1020900042618162FFF716FD002801D0FEF7B6F815
:1020A00010BD00000044004014020020FEE770470D
:1020B000F0B585B000F08CF805273F078021384641
:1020C000FEF71AFB064640213846FEF715FB05468B
:1020D00020213846FEF710FB049010213846FEF709
:1020E0000BFB6621384A394B03240093019203917C
:1020F000029433462A460499FFF756FE802138465B
:10210000FEF7FAFA049040213846FEF7F5FA064643
:1021100010213846FEF7F0FA054620213846FEF732
:10212000EBFA2949294B6722C91CDB1C0093039257
:102130000191029432462946049BFFF735FE802127
:102140003846FEF7D9FA049020213846FEF7D4FA33
:10215000064610213846FEF7CFFA0546402138469C
:10216000FEF7CAFA1849194B6822891D9B1D009376
:1021700003920191029432462946049BFFF714FE14
:1021800040213846FEF7B8FA049020213846FEF781
:10219000B3FA064610213846FEF7AEFA054680210E
:1021A0003846FEF7A9FA0849084B69220931093374
:1021B000009303920191029432462946049BFFF753
:1021C000F3FD05B0F0BD00006C3600080E000020E5
:1021D00010B5002001F058F904490128C87003D057
:1021E000022801D0032800D1087010BD0000002093
:1021F00070B50446002A1CD00A2A1AD80D480E4E83
:10220000855C012220213046FEF77BFA09496800EF
:102210002818213941180322204600F022F82068AE
:10222000C169C9434906FBD4002220213046FEF78C
:1022300068FA70BD8D3600080004005010B5054CDA
:102240002278002A05D004490448FFF7D1FF002076
:10225000207010BD000000206C36000880010020B6
:102260007047F7B500247D2715460E46FF0007E0AE
:1022700031193B4601220098FFF72EFD641CE4B2A1
:10228000AC42F5D3FEBD000070B5114D2888114C4D
:10229000A04212D02846FEF731F8224600232846F5
:1022A000FEF747F80124E000002240191346FEF72C
:1022B00040F8641CA4B2082CF5D3074B0020410061
:1022C0004A191288401C80B25A522028F7D370BD98
:1022D00000F80008F1F100004C00002010B5FEF7F6
:1022E0005BFA10BD30B593B038216846FDF74FFF5B
:1022F000002401200E940F94109440021194FEF7D4
:10230000B1FA0A200090FF20013003904020059090
:102310000120069008200A90022580030B90079563
:1023200000020C900895000104940D9009946846F1
:10233000FEF79CFC002801D072B6FEE707200E9045
:10234000109402210F9511940EA8FEF789FB002826
:1023500001D072B6FEE713B030BD704710B5024829
:10236000FEF7CAFF10BD0000E800002010B50248CB
:10237000FEF7C2FF10BD000034010020F0B5026876
:102380001E4B0124A4071E4D984203D0A04201D049
:10239000A84203D17026B2434E683243194E1A4FF9
:1023A00098420AD0A04208D0A84206D0174CA042BA
:1023B00003D0B04201D0B84204D103242402A24386
:1023C000CC6822438024A2434C69224302608A687D
:1023D000C2620A688262984203D0B04201D0B84219
:1023E00001D109690163012141610169C90703D074
:1023F0000169490849000161F0BD0000002C01405D
:10240000000400400044014000480140002000401A
:1024100010B5CB06DB0E0121046A99408C4304629F
:10242000016A9A401143016210BD30B58468FF25EE
:102430002D021B021343AC430B432343836030BD87
:102440008268034B1A400A4307210A43826070479F
:102450008FFFCFFFF0B5056A026A52085200026290
:1024600043688269164C184E224092080C6892000C
:102470001443022295438A682A43124DA84204D08D
:10248000B04202D0114FB84206D10827BA43CF68F4
:102490001743042297433A46A84204D0B04202D0E0
:1024A0000A4DA84206D103252D02AB434D691D43B9
:1024B0008B692B4343608461496841630262F0BDCC
:1024C0008FFFFEFF002C0140004401400048014006
:1024D00070B5046A026A10239A43026243688269F3
:1024E000164D2A4003252D02AA430D682D021543DF
:1024F000202294438A6812012243114CA04207D142
:102500008024A243CC68402624012243B24305E044
:102510000C4CA04202D00C4CA04208D10324A402CF
:10252000A3434C69A4001C438B699B002343436075
:10253000856149688163026270BD0000FF8FFFFE04
:10254000002C0140004401400048014070B5046A7D
:10255000026AFF2301339A4302624368C269164D3F
:102560002A4092080D6892001543012252029443BA
:102570008A6812022243114CA04208D11446CA684C
:10258000C614B443120222430415A24305E00C4CC6
:10259000A04202D00B4CA04208D103242403A34341
:1025A0004C6924011C438B691B0123434360C561B3
:1025B0004968C163026270BD8FFFFEFF002C0140BD
:1025C000004401400048014030B5046A026A01231A
:1025D0001B039A4302624368C269114D2A400325D6
:1025E0002D02AA430D682D02154301225203944384
:1025F0008A68120322430B4CA04205D00A4CA04229
:1026000002D00A4CA04205D10124A403A3434C6983
:10261000A40123434360C56149680164026230BD7F
:10262000FF8FFFFE002C01400044014000480140A4
:1026300070B5036A026A01263604B2430262426838
:10264000456D0E4C25400C682C437500AB430D893D
:102650002D041D430A4B984205D00A4B984202D0E4
:10266000094B984203D14B69B2431B021A434260A3
:10267000446549688165056270BD00008FFFFEFFFB
:10268000002C0140004401400048014070B5046A3C
:10269000026A01231B059A4302624268436D104D92
:1026A0002B400D682D021D4301235B059C430B89C4
:1026B0001E050C4B2643984205D00B4B984202D086
:1026C0000A4B984206D101241346A4044A69A34345
:1026D00092021A43426045654968C165066270BD51
:1026E000FF8FFFFE002C01400044014000480140E4
:1026F00030B5036A046A6408640004628469F025E2
:10270000AC43120122430A24A3430B4382610362B8
:1027100030BD30B5046A036A1025AB430362836998
:102720000F252D031203AB431A43A0239C43090139
:1027300021438261016230BDF8B50446416E4034E8
:10274000002915D000688168806809014D0F0A4E84
:10275000400F3746315C083F385CC000FDF7CAFCCB
:102760006085785D715DC000FDF7C4FC2085F8BD13
:1027700001206085FAE70000CC36000810B5018D15
:10278000090707D501684A680123DB039A43836B75
:102790001A434A60018DC90707D001684A680123BE
:1027A0005B049A43C36A1A434A60018D890707D5BF
:1027B00001684A6801231B049A43036B1A434A6069
:1027C000018D490707D501684A6801239B049A4394
:1027D000436B1A434A60018DC90607D502689168A8
:1027E00001231B039943C36B19439160018D890633
:1027F00007D501688A6801235B039A43036C1A4377
:102800008A60018D490612D503685A6801210905BD
:10281000446C8A4322435A60426C8A4207D1026860
:10282000516803235B059943836C19435160018D03
:10283000090607D501684A680123DB04C06C9A4386
:1028400002434A6010BD0000FEB5054600268035F3
:1028500004462E61FDF75CFF019020680068202788
:102860000007002817DA2548009000223904204686
:10287000019B00F0B5FC00280DD0EFF31080012182
:1028800081F3108821680A6880239A430A6080F3E4
:102890001088AF6028E020680068400727D51748F7
:1028A00000900121002289052046019B00F098FC40
:1028B00000281CD0EFF31080012181F310882168DB
:1028C0000A68FF2321339A430A6080F31088EFF3EC
:1028D0001080012181F3108821688A685208520013
:1028E0008A6080F31088EF602E710320FEBDAF6018
:1028F000EF60E66626672E710020FEBDFFFFFF0138
:1029000010B5806A002201464031CA83CA82FEF7B0
:102910005FFF10BD10B5EFF31081012282F3108824
:1029200002681368FF242134A343136081F31088E5
:10293000EFF31081012282F31088026893680D4C36
:102940002340936081F31088C16E01290BD1EFF30E
:102950001081012282F31088026813681024A343B7
:10296000136081F3108820228C210A500021C16657
:10297000416710BDFEFFFFEF70B5014640310346D1
:1029800080330C8CDD680268222D04D09069082108
:102990000843906170BD526A856D22402A80826D25
:1029A000921C8265CA8B521ECA83CA8B002AF1D13F
:1029B000EFF31082012484F3108804682568FF2651
:1029C0002136B543256082F31088EFF3108201248D
:1029D00084F310880468A5686D086D00A56082F313
:1029E00010882022DA60002343670367174A0468CF
:1029F00094420ED0626812020BD5EFF310820125CB
:102A000085F3108825680126B606B543256082F354
:102A10001088C26E012A02D0FFF722F970BDC3668A
:102A2000EFF31082012383F31088046825681023D4
:102A30009D43256082F310880268D469E443E4066C
:102A400000D41362898BFEF778FE70BD00800040D1
:102A5000F0B50546044640358BB0288C02902068BE
:102A6000C669016806918168049121468031009110
:102A7000C968222905D081690822114381610BB000
:102A8000F0BD2F8D7CE02068406A029AA16D104055
:102A90000880A06D801CA065E88B401EE88320683C
:102AA000C669710731D0F10709D00699C90506D565
:102AB0000121016200980069084300990861B0078C
:102AC0000BD50498C00708D021680220086200983E
:102AD0000069042108430099086170070BD5049828
:102AE000C00708D02168042008620098006902210C
:102AF00008430099086100980069002805D0204625
:102B0000FEF766FE009900200861E88B002837D1A7
:102B1000EFF31080012181F3108821680A68FF23F8
:102B200001339A430A6080F31088EFF3108001218B
:102B300081F3108821688A68324B1A408A6080F3DA
:102B4000108800982021C1600020606720672E480F
:102B5000216881420ED0486800020BD5EFF3108047
:102B6000012282F310880A6801239B069A430A60B7
:102B700080F31088E06E01282AD02046FFF770F815
:102B8000002F02D0B00600D57DE7E88B002800D1E9
:102B900075E7298D8142FBD9EFF31080012181F384
:102BA000108821688A6801231B079A438A6080F392
:102BB00010881648EFF310816067012080F31088B9
:102BC0002268106820231843106081F3108856E7AC
:102BD0000020E066EFF31080012181F31088226865
:102BE000136810218B43136080F310882068C2693A
:102BF000D243D20600D40162A98B2046FEF79DFD88
:102C0000BEE70000FEFFFFEF0080004079290008CA
:102C100070B501464031034680330C8CDD68026894
:102C2000222D04D0906908210843906170BD526A3A
:102C30002240846D2270826D521C8265CA8B521EA6
:102C4000CA83CA8B002AF1D1EFF31082012484F3E6
:102C5000108804682568FF262136B543256082F375
:102C60001088EFF31082012484F310880468A568AB
:102C70006D086D00A56082F310882022DA600023C1
:102C800043670367174A046894420ED062681202D1
:102C90000BD5EFF31082012585F3108825680126F6
:102CA000B606B543256082F31088C26E012A02D0B1
:102CB000FEF7D6FF70BDC366EFF31082012383F3E6
:102CC00010880468256810239D43256082F31088CE
:102CD0000268D469E443E40600D41362898BFEF7EA
:102CE0002CFD70BD00800040F0B50546044640351F
:102CF0008BB0288C02902068C669016806918168B3
:102D00000491214680310091C968222905D081694A
:102D10000822114381610BB0F0BD2F8D7CE020684B
:102D2000406A02990840A16D0870A06D401CA06522
:102D3000E88B401EE8832068C669710731D0F1072F
:102D400009D00699C90506D50121016200980069DC
:102D5000084300990861B0070BD50498C00708D054
:102D60002168022008620098006904210843009944
:102D7000086170070BD50498C00708D021680420AB
:102D800008620098006902210843009908610098D0
:102D90000069002805D02046FEF71AFD00990020A2
:102DA0000861E88B002837D1EFF31080012181F30F
:102DB000108821680A68FF2301339A430A6080F370
:102DC0001088EFF31080012181F310882268916848
:102DD000324B1940916080F3108800982021C16027
:102DE0000020606720672E49206888420ED0416825
:102DF00009020BD5EFF31081012282F310880268DB
:102E000001239B069A43026081F31088E06E01283B
:102E10002AD02046FEF724FF002F02D0B00600D5AE
:102E20007DE7E88B002800D175E7298D8142FBD929
:102E3000EFF31080012181F3108821688B68012253
:102E4000120793438B6080F3108816486067EFF396
:102E50001080012181F3108823681A6820210A4319
:102E60001A6080F3108856E70020E066EFF31080C8
:102E7000012181F310882268136810218B431360AD
:102E800080F310882068C269D243D20600D4016260
:102E9000A98B2046FEF751FCBEE70000FEFFFFEFC6
:102EA00000800040112C0008F8B5044601688068D5
:102EB0002369E5691843636900262B431843734A65
:102EC0000B68734D2B4003430B602068416803235C
:102ED0001B039943E368194341602168A06991424B
:102EE00001D0236A18438B686A4D2B4003438B60E3
:102EF0002068C16A636A090909011943C162664908
:102F0000236866488B420AD140698007800F09D048
:102F100001282CD0022828D0032816D113E06049BC
:102F20008B4201D1002111E093420ED1416903206F
:102F3000800201400AD001208002091A17D0091A24
:102F400013D0814201D1082100E010210120554D0C
:102F5000554FC00393423DD100290AD0022911D018
:102F6000042909D0082934D10BE00221EEE704211D
:102F7000ECE7FDF721FE01E0FDF732FE050001D18F
:102F800079E00546606A4000395A28460091FDF70D
:102F9000B1F8676879007918814267D839038142AE
:102FA00064D3002328461946009AFDF7B9F8020EAB
:102FB00009020302780811431818002251413A46C9
:102FC0000023FDF7ADF803210902384A411A914266
:102FD0004FD94BE0E269824227D1002906D002296D
:102FE00007D0042907D0082940D108E0FDF7E4FD07
:102FF00003E0284603E0FDF7F3FD00283BD0616ABB
:103000004900795AFDF776F8616840004A0880184F
:10301000FDF770F80146264A1039914226D8511C16
:1030200001400007400F084323E0002906D0022991
:1030300007D0042907D0082918D108E0FDF7BCFD06
:1030400003E0284603E0FDF7CBFD002813D0616ABA
:103050004900795AFDF74EF861684A088018FDF773
:1030600049F80146124A1039914201D9012602E07D
:1030700080B22168C8602046012140304185018529
:1030800000206067A0673046F8BD00000080004067
:10309000F369FFCFFFF4FF110038014040100240F8
:1030A000004400400024F400AC360008FFFC0F0090
:1030B000EFFF0000F0B58165014640318A83CA8385
:1030C00000254567012483682403FF26A34204D119
:1030D0000369002B13D13D4B0AE07F27002B09D059
:1030E00001263607B3420CD10369002B05D03F23DC
:1030F0000B8407E00369002B01D00F8402E00E84EB
:1031000000E00D84034680331D612225DD60EFF36E
:103110001083012585F310880568AE6801273E43BA
:10312000AE6083F31088436E7D07AB4229D1098DD1
:10313000914226D88168A14202D1016900291DD09F
:1031400023494167016900290CD0EFF31081012266
:1031500082F3108802681368FF240134234313604C
:1031600081F31088EFF31081012282F31088006848
:10317000826801231B071A43826023E015494167D7
:10318000F0E78168A14202D1016900290ED01249FD
:103190004167016900290BD0EFF31081012282F30E
:1031A000108800680268FF23213309E00B4941675A
:1031B000EFF31081012282F3108800680268202357
:1031C0001A43026081F310880020F0BDFF01000067
:1031D000E92C0008512A0008112C00087929000860
:1031E000FFB581B005460E46044680350A9F32E0A1
:1031F000781C30D0FDF78CFA0499401AB84218D8E0
:10320000002F16D020680168490724D5802E22D0CF
:10321000402E20D0C169C94309070CD40826066294
:103220002046FFF777FB2E6100202871012005B0B2
:10323000F0BD0320FBE7C069C04300050BD40120AB
:103240002168C00208622046FFF764FB2020286145
:1032500000202871EDE72068C1693046884305D019
:10326000002103988142C3D00020E0E70121F8E764
:1032700010B50248FEF7AEFA10BD00008001002034
:103280000FB410B503A9044B044A029800F048F8A3
:1032900010BC08BC04B01847713400084800002076
:1032A00030B47446641E2578641CAB4200D21D46BF
:1032B000635D5B00E31830BC184700008307FF2202
:1032C000DB0E9A408907090E9940002808DB830825
:1032D00009489B001B181868904308431860704702
:1032E0000007000F0838830804489B001B18D869A2
:1032F00090430843D861704700E400E000ED00E02F
:1033000002E008C8121F08C1002AFAD170477047AE
:10331000002001E001C1121F002AFBD1704700000C
:10332000FFB58DB00446002506E025280AD0109A86
:103330000F999047641C6D1C20780028F5D1284611
:1033400011B0F0BD00270121484A009700E0074373
:10335000641C23780846203B98401042F7D120781F
:103360002E2817D1042007436078641C2A280CD12A
:103370000E98641C02C800910E900BE000990A227E
:10338000514330394018641C009020780146303990
:103390000929F3D920780028D1D0642808D06928D9
:1033A00006D075281ED0109A0F9990476D1C5BE0CF
:1033B0000A200E99019001C90E91002802DA4042BC
:1033C0002D2102E0390504D52B216A461172012115
:1033D00003E0F90704D02021F7E70BAE0B910DE0D5
:1033E0000021FAE70A200E99019001C90E91F7E732
:1033F0000199FCF77FFE3031761E31700028F7D13D
:1034000003A8801B20300190780701D5009801E0C7
:10341000012000900199884201DD401A00E000205F
:103420000027009006E002A8109AC05D0F9990470F
:103430006D1C7F1C0B988742F5DB04E0109A30204E
:103440000F9990476D1C0099481E00900029F5DCEB
:1034500005E03078109A761C0F9990476D1C019901
:10346000481E01900029F4DC641C65E7092801006E
:1034700013B50023DB43012269460248FEF72CFC0A
:1034800000981CBD14020020F8B500260125484C08
:10349000002801D0657102E06079002814D0454F02
:1034A00010213846FDF728F9002819D008213846A0
:1034B000FDF722F9002813D0FF2105200131000774
:1034C000FDF71AF900280BD0FDF722F90746FF2176
:1034D000052001310007FDF70FF9002823D034E063
:1034E0000A20FCF7ADFF0020607110213846FDF77F
:1034F00003F900280ED008213846FDF7FDF8002812
:103500000AD0FF21052001310007FDF7F5F800285A
:1035100004D03FE001263DE002263BE0E571FDF7E7
:10352000F7F8E06136E0E079002801D1E571E76164
:10353000A079002809D1E069391A1F48814204D3D3
:1035400009202070A5710020207210211948FDF774
:10355000D3F801281ED108211648FDF7CDF801281F
:1035600018D1010205200007FDF7C6F8012811D186
:10357000E07900280DD0A07900280DD0207A00280D
:1035800013D00A2020700020A07120720020E0716A
:10359000E06165713046F8BDE069002803D0064956
:1035A000381A8842F2D20326F0E72572EEE70000CF
:1035B000000000200004005088130000FDF7F4F81C
:1035C000FEF790FEFEF730FCFEF71EFDFEF750FD05
:1035D000FEF774FCFEF78AFCFEF7C2FCFEF7A2FCC5
:1035E000012219491948FEF709FBFEF74DFE042197
:1035F0001748FEF707F8002220211648FDF781F84A
:103600001420FCF71DFF1448FDF7D8FD134E144D90
:1036100000273078302801D1FEF710FE28880128D5
:103620000ED10024315D0FA0FFF72AFE641CE4B226
:10363000042CF7D32F80307941B20BA0FFF720FE86
:10364000FEF736FDE5E700002C0000208001002099
:103650009C00002000040050E80000203200002000
:10366000300000202564200025640A00FFA1FEFF31
:10367000B1FEFFC1FEFFD1FEFFA5FEFF95FEFF9844
:10368000FEFF9DFEFFFFFEFFAEFEFFBDFE00060536
:10369000070001020304090A00005000A000040111
:1036A00086012602E402C003BA047C06010002007F
:1036B0000400060008000A000C0010002000400072
:1036C0008000000101010103070100000804020459
:1036D00008010101000000000000000000000000DF
:1036E00000000000000000000000000000000000DA
:1036F00000000000010000000200000003000000C4
:1037000004000000060000000700000008000000A0
:1037100009000000000000000000000000000000A0
:103720000000000001000000020000000300000093
:103730000400000054370008000000204C00000086
:1037400000330008A03700084C0000207C06000071
:1037500010330008000000000101000000FF00001D
:103760000000000000000000000000000000000059
:103770000000000000000000000000000000000049
:103780000000000000000000000000000100000038
:1037900004000000000000000024F400000000000D
:04000005080000C12E
:00000001FF
